:030000000208955E
:0C089500787FE4F6D8FD75814A0208DC8B
:100056004952206973207265636F766572792066EE
:100066006163746F7279206D6F64650D0A00495281
:100076002072656D6F746520696E666F2073657496
:10008600206F6B0D0A0049522072656D6F746520F2
:10009600696E666F2072656164206F6B0D0A004998
:1000A600522072656D6F746520696E666F20697384
:1000B600206E756C6C0D0A00506C6561736520705E
:1000C600726573732073687574646F776E20636FDF
:1000D60064653A0D0A00426F78206973206F706577
:1000E6006E6E696E67202E2E2E0D0A00426F785FA7
:1000F6006F70656E5F66696E6973680D0A00426FA0
:100106007820697320636C6F73696E67202E2E2EBC
:100116000D0A00426F7820636C6F73652066696E06
:100126006973680D0A00426F782073746F702069D6
:100136006E2061637469766974790D0A00426F787E
:1001460020616C776179732069732073746F7065B1
:1001560064210D0A003D3D3D3D3D3D3D3D3D3D3D5E
:100166003D3D3D3D3D3D3D3D3D3D3D3D3D3D3D3DB9
:100176003D0D0A003E20204D696E692072656D6F47
:10018600746520636F6E74726F6C20626F782020C6
:100196000D0A003E202056657273696F6E203A2064
:1001A600312E302020202020202020202020200D2D
:1001B6000A003E2020417574686F7220203A20475D
:1001C60058592020202020202020202020200D0AE1
:1001D60000556E646566696E656420737461747536
:1001E60073210D0A004D6F746F722069732073744A
:1001F6006F70656420746F204D6F746F7220637525
:100206007272656E7420746F6F206D7563685B0023
:100216005D0D0A00426F7820697320736C65657006
:1002260070696E672E2E2E0D0A00426F7820776158
:10023600732077616B65642075700D0A000D0A5591
:100246007365723A5B005D2020436D643A5B006320
:10025600757272656E743A205B00506C65617365E9
:10026600207072657373206F70656E20636F6465AE
:100276003A0D0A00506C6561736520707265737380
:1002860020636C6F736520636F64653A0D0A0049DD
:100296005220696E666F20736574206F6B0D0A00BD
:1002A60049522068656164206572726F7220310D53
:1002B6000A0049522068656164206572726F722077
:1002C600320D0A0049522064617461206572726FB2
:1002D6007220310D0A0049522064617461206572F2
:1002E600726F7220320D0A00636F64652063686561
:1002F600636B206572726F72210D0A006C696D69FD
:100306007420737769746368205B315D206973209C
:0C0316007472696765726564210D0A004D
:100EA70012333031323334353637383930414243F3
:040EB7004445460068
:100ED000759850438E01438E0475D7C775D6FE436F
:030EE0008E10224F
:080F59008F993099FDC2992225
:100EE3001206BFFF600C120F59740129F9E43AFA94
:030EF30080EE226C
:090A1100120E617BFF7A027916D6
:060A1A008B108A11891205
:100A2000804CE513604FB45C30AB10AA11A9129052
:100A300000011206D8248E600D24FE600E2406707C
:100A40001875130A800875130D8003751309740156
:100A50002512F512E43511F511AF13120F59740177
:100A60002512F512E43511F511AB10FAA912120690
:050A7000BFF51380AD8D
:010A7500225E
:040A7600AB07AA061A
:100A7A00754927754A10C3EA64809480500C120F96
:100A8A0044AA06AB077F2D120F59E54A4549603241
:100A9A00AC49AD4AAF03AE0212074BEF2430FF1246
:100AAA000F59AC49AD4AAF03AE0212074BAA04ABC9
:100ABA0005AE49AF4A7C007D0A12074B8E498F4A20
:020ACA0080C8E2
:010ACC002207
:100E6100AE07EEC4540F2433F8E6FF120F59EE54C7
:090E71000F2433F8E6FF020F59CB
:070F610075C10443C1202209
:100CB500EFC394414009E47FE87EFDFDFC800C7E96
:100CC500007C037DE8120739E4FCFD8E128F13E4E6
:100CD500F58AF58CD28C120F50C3EF9513EE951251
:040CE50040F4C28C89
:010CE90022E8
:100D750043C110EF75F014A485F010F511D3E511FA
:100D85009400E510940040127F32120CB543C11057
:0A0D9500E511151170E7151080E359
:010D9F002231
:100C3C00E5A254CFF5A2E4F5D8F5E9F5F9F5D9908C
:100C4C00000A7427F0A37410F090000AE0FEA3E0F1
:100C5C00F5EAEEF5FAE02410F090000AE03427F003
:0F0C6C0075DA49D2DEE4900000F0900012F02219
:100ACD008B1D8A1E891F9000041206D8F460367F94
:100ADD00007E04120EBCAB1DAA1EA91F74FF1207C7
:100AED0005AB1DAA1EA91F90000112071790000249
:100AFD0074FF12071790000374FF1207179000047C
:100B0D0074FF1207177BFF7A007956120EE37F00F0
:010B1D0022B5
:100921008B108A1189127F007E04120EBC7D557FC7
:10093100007E04120E91AB10AA11A9121206BFFD7E
:100941007F017E04120E91AB10AA11A91290000131
:100951001206D8FD7F027E04120E91AB10AA11A9D6
:10096100129000021206D8FD7F037E04120E91AB95
:1009710010AA11A9129000031206D8FD7404FFFEFB
:10098100120E91AB10AA11A912900004E4120717DC
:0C0991007BFF7A007974120EE37F0022D5
:100802008B108A1189127F007E04120E7AEF6455D2
:1008120070607F017E04120E7AAB10AA11A912EF4A
:100822001207057F027E04120E7AAB10AA11A912DA
:10083200900001EF1207177F037E04120E7AAB10AD
:10084200AA11A912900002EF1207177404FFFE12F8
:100852000E7AAB10AA11A912900003EF120717909B
:100862000004E41207177BFF7A00798C120EE37FF3
:100872000022AB10AA11A91290000474FF120717EC
:100882007BFF7A0079A5120EE37A0079BE120EE39D
:030892007FFF22C3
:10001600D2B2D2887E007F047D007B007A007927E9
:10002600120781E4F521F531F52DFB7A00792212CC
:050036000802D2A8221F
:0C0F3800D2B6D2B3438F10D28AD2AA22C4
:100DA0007E007F087D007B017A007902120781E4D2
:100DB00090000CF090000FF090000DF0900010F0FB
:0B0DC000A3F0900001F090000EF02264
:0E0F2A00C289D2A8D2AF758702000000002253
:100D1D00E52C6441601CE52C64816016AB2EAA2F76
:100D2D00A9307D01120DCB752C817BFF7A0079DC0A
:0C0D3D0080067BFF7A0079F2120EE322A0
:100E0C00E52C6441600EAB2EAA2FA930E4FD120D27
:0D0E1C00CB752C417BFF7A0079F2020EE3CA
:100D4900E52C6442601CE52C64826016AB2EAA2F48
:100D5900A9307DFF120DCB752C827BFF7A017904B6
:0C0D690080067BFF7A017919120EE3224C
:100E2900E52C6442600EAB2EAA2FA930E4FD120D09
:0D0E3900CB752C427BFF7A017919020EE384
:100C7B00E52C30E72BAB2EAA2FA930E4FD120DCBC0
:100C8B00E52C30E603D38001C3400DE52CB4810580
:100C9B00752C018003752C027BFF7A01792C800661
:0A0CAB007BFF7A017943120EE32269
:10003E007B007A0079458B2E8A2F8930120BFA7548
:05004E002C01020C7BF7
:100BB200120ED07BFF7A01795B120A1A7BFF7A014F
:100BC200797A120A1A7BFF7A017999120A1A7BFF43
:100BD2007A0179B8120A1A7BFF7A01795B120A1A32
:100BE20012003E120EF6120F38120016120DA0124B
:080BF2000C3C120F61D2AF228E
:10032200120BB2E52C20E7030203F5900000E07007
:100332000302040EAB2EAA2FA930120DEE9000017B
:10034200EFF090000CE0FF2402F582E43400F58324
:10035200E0FDC3900011E09DF0900010E09400F0E9
:10036200900001E0FE74022FF582E43400F583EE82
:10037200F0EEFF900011E02FF0900010E03400F05A
:10038200E0FEA3E07803CEC313CE13D8F990000E9B
:10039200F090000CE004F0E0C394084002E4F09016
:1003A200000EE0C3940C4044E52CB48205120E29E1
:1003B200801EE52CB48105120E0C8014AB2EAA2FE0
:1003C200A930E4FD120DCB7BFF7A0179D7120A1A0C
:1003D20043C1107BFF7A0179EB120A1AAB2EAA2FC6
:1003E200A9309000021206D8FF120A11E490000010
:1003F200F08019E52170157BFF7A02791A120A1A28
:10040200120F2A7BFF7A027930120A1A43C110E5D1
:1004120021700302050F7BFF7A027943120A1AAF99
:1004220027120E617BFF7A02794C120A1AAF291247
:100432000A11E526F470030204C0E5276522600371
:10044200020508E524B52512B5290FE52C5403FF52
:10045200BF01028024EF64026005E529B52415E599
:100462002CB48208120C7B7F01120D75120DA012A2
:100472000D1D8018E529B52518E52CB48108120C4C
:100482007B7F01120D75120DA0120D49E4F531802A
:1004920075E529B52305120C7B806BE5296416707E
:1004A200657BFF7A027955120A1AAB2EAA2FA93060
:1004B200120DEE120E617BFF7A0279168045E52D50
:1004C2001460151460202402701F852923852722B9
:1004D2007BFF7A02796080098529247BFF7A027981
:1004E2007A120A1A8003852925052DE52DC3940366
:1004F2004014E4F52DFB7A0079221209217BFF7A60
:10050200027995120A1AE4F521C289D2A843C110D0
:03051200020325BC
:10099D00D200751800751917751A70751B17751C0F
:0109AD0070D9
:1009AE00E4F58AF58CFFFED28CE51A251CFDE519BF
:1009BE00351BFCD3EF9DEE9C501E120F50A2B23091
:1009CE000001B34007E518B40102800CA2B230005A
:1009DE0001B350D5E51870D1C28CE51A251CFDE582
:1009EE0019351BFCD3EF9DEE9C5012C3E51A951CD6
:1009FE00FDE519951BFCC3EF9DEE9C50057EFF7F18
:020A0E00FF22C5
:010A100022C3
:03000300020515DE
:10051500C0E0C0F0C083C082C0D075D000C000C0AC
:0D05250001C002C003C004C005C006C0072D
:10053200E52160030206A4C2A843C110C2007518D7
:1005420000751923751A28751B03751CE81209AE6C
:100552008E148F15E515B4FF1AE514B4FF157BFF51
:100562007A0279A6120EE312099DBEFFFABFFFF7C7
:1005720002061CD200751800751911751A94751BA4
:1005820011751C941209AE8E148F15E515B4FF1A5D
:10059200E514B4FF157BFF7A0279B8120EE3120953
:1005A2009DBEFFFABFFFF702061C75160075170005
:1005B200C200751800751902751A30751B00751C7A
:1005C200C81209AE8E148F15E515B4FF19E514B4DF
:1005D200FF147BFF7A0279CA120EE312099DBEFF55
:1005E200FABFFFF78034D200751800751904751A26
:1005F20092751B03751C2A1209AE8E148F15E51510
:10060200B4FF1EE514B4FF197BFF7A0279DC120EE7
:10061200E312099DBEFFFABFFFF7C289D2A8020604
:10062200A474272516F8C000E6FFC313D000F6D342
:10063200E5159468E5149401400AE51594F8E5146B
:100642009402400974272516F8E64480F60517E55A
:1006520017C3940850030205B20516E516C39404A5
:1006620050030205AF43C110D2007518007519C3BB
:10067200751A50751BC3751C501209AEBEFFE9BF37
:10068200FFE6E528F4B5270DE52AF4B5290775211B
:1006920001C2A8800B7BFF7A0279EE120EE3D2A888
:0206A200C2890B
:1006A400D007D006D005D004D003D002D001D000AA
:0B06B400D0D0D082D083D0F0D0E03254
:03001300020B1EBF
:100B1E00C0E0C0F0C083C082C0D075D000C000C09D
:100B2E0001C002C003C004C005C006C007E52CB456
:100B3E008203120E297B007A007922120ACDC28B13
:100B4E00D007D006D005D004D003D002D001D000FB
:0B0B5E00D0D0D082D083D0F0D0E032A5
:03005300020B6934
:100B6900C0E0C0F0C083C082C0D075D000C000C052
:100B790001C002C003C004C005C006C007E52CB40B
:100B89008103120E0C7BFF7A037902120EE3D00760
:100B9900D006D005D004D003D002D001D000D0D0E7
:090BA900D082D083D0F0D0E032FC
:03003B00020CEACA
:100CEA00C0E0C083C082C0D075D008C2D890000AC4
:100CFA00E0FEA3E0F5EAEEF5FAE02410F090000A2F
:100D0A00E03427F09000007401F0D0D0D082D08374
:030D1A00D0E032F4
:080F5000AF8CEFFEAD8AEDFF4E
:010F58002276
:100EF600538E7F5389F0438901C2A9C28DE4F58AD6
:030F0600F58C2245
:100BFA008B108A1189124392035391FCAB10AA11EC
:100C0A00A912E4FD120DCB7E007F047D00AB10AA71
:100C1A0011A912120781AB10AA11A9127DFF120F96
:100C2A0068AB10AA11A912900003740212071702E6
:020C3A000F1B8E
:070F6800900001ED020717E4
:100DCB00ED601704600C24FE7018C290D291740170
:100DDB00800DC291D29074FF8005C291C290E41233
:030DEB00070522D7
:100DEE008B108A118912120F09AB10AA11A9129039
:0E0DFE000002EF1207179000021206D8FF2223
:100F090075BC8A00000000E5BC30E4FB53BCEFAFC0
:020F1900BD22F7
:0F0F1B00759D04E4F5BD75BC807F02FE020E4695
:100E4600EF1FAA0670011E4A60107C137D88ED1DF7
:0A0E5600AA0470011C4A60E880F451
:010E6000226F
:0D000600E4F5C7F5C5F5C675C380F5C42245
:100E7A0075C78275C5018FC48EC375C65A75C6A556
:060E8A0000AFC2120006D9
:010E9000223F
:100E910075C78275C5028FC48EC38DC275C65A755A
:060EA100C6A500020006D8
:100EBC0075C78275C5038FC48EC375C65A75C6A512
:040ECC00000200061A
:1008A100020322E493A3F8E493A34003F68001F248
:1008B10008DFF48029E493A3F85407240CC8C33358
:1008C100C4540F4420C8834004F456800146F6DF27
:1008D100E4800B0102040810204080900EA7E47E02
:1008E100019360BCA3FF543F30E509541FFEE4931C
:1008F100A360010ECF54C025E060A840B8E493A3E3
:10090100FAE493A3F8E493A3C8C582C8CAC583CA0D
:10091100F0A3C8C582C8CAC583CADFE9DEE780BEC5
:010EBB000036
:1006BF00BB010689828A83E0225002E722BBFE0239
:0906CF00E32289828A83E493226C
:1006D800BB010CE58229F582E5833AF583E02250D7
:1006E80006E92582F8E622BBFE06E92582F8E22221
:0D06F800E58229F582E5833AF583E493223B
:10070500BB010689828A83F0225002F722BBFE01D3
:02071500F322CD
:10071700F8BB010DE58229F582E5833AF583E8F018
:10072700225006E92582C8F622BBFE05E92582C8C4
:02073700F222AC
:10073900EF8DF0A4A8F0CF8CF0A428CE8DF0A42ED4
:02074900FE228E
:10074B00C2D5EC30E709B2D5E4C39DFDE49CFCEEC9
:10075B0030E715B2D5E4C39FFFE49EFE1207ADC38D
:10076B00E49DFDE49CFC80031207AD30D507C3E488
:06077B009FFFE49EFE2238
:0C0F4400EE30E707C3E49FFFE49EFE22AE
:10078100EF4E6012EF60010EEDBB010B89828A838F
:10079100F0A3DFFCDEFA2289F05007F709DFFCA99C
:0C07A100F022BBFEFCF309DFFCA9F022F3
:1007AD00BC000BBE0029EF8DF084FFADF022E4CC30
:1007BD00F875F008EF2FFFEE33FEEC33FCEE9DECF9
:1007CD00984005FCEE9DFE0FD5F0E9E4CEFD22ED3F
:1007DD00F8F5F0EE8420D21CFEADF075F008EF2F89
:1007ED00FFED33FD4007985006D5F0F222C398FD7A
:0507FD000FD5F0EA2217
:00000001FF
